{"contracts/SmartContract.sol":{"SimpleContract":{"abi":[{"inputs":[{"internalType":"string","name":"_name","type":"string"}],"name":"deleteName","outputs":[],"stateMutability":"nonpayable","type":"function"},{"inputs":[],"name":"getAllNames","outputs":[{"internalType":"string[]","name":"","type":"string[]"}],"stateMutability":"view","type":"function"},{"inputs":[],"name":"reset","outputs":[],"stateMutability":"nonpayable","type":"function"},{"inputs":[{"internalType":"string","name":"_name","type":"string"}],"name":"setName","outputs":[],"stateMutability":"nonpayable","type":"function"}],"evm":{"bytecode":{"linkReferences":{},"object":"608060405234801561001057600080fd5b50610a99806100206000396000f3fe608060405234801561001057600080fd5b506004361061004c5760003560e01c806353a98ea914610051578063c47f00271461006d578063d826f88f14610089578063fb825e5f14610093575b600080fd5b61006b600480360381019061006691906105bd565b6100b1565b005b610087600480360381019061008291906105bd565b610279565b005b6100916102b8565b005b61009b6102c7565b6040516100a89190610756565b60405180910390f35b60005b60008054905081101561027557818051906020012060008281548110610103577f4e487b7100000000000000000000000000000000000000000000000000000000600052603260045260246000fd5b9060005260206000200160405161011a919061073f565b604051809103902014156102625760008190505b60016000805490506101409190610899565b8110156102065760006001826101569190610843565b8154811061018d577f4e487b7100000000000000000000000000000000000000000000000000000000600052603260045260246000fd5b90600052602060002001600082815481106101d1577f4e487b7100000000000000000000000000000000000000000000000000000000600052603260045260246000fd5b906000526020600020019080546101e790610919565b6101f29291906103a0565b5080806101fe9061097c565b91505061012e565b50600080548061023f577f4e487b7100000000000000000000000000000000000000000000000000000000600052603160045260246000fd5b60019003818190600052602060002001600061025b919061042d565b9055610275565b808061026d9061097c565b9150506100b4565b5050565b6000819080600181540180825580915050600190039060005260206000200160009091909190915090805190602001906102b492919061046d565b5050565b6000806102c591906104f3565b565b60606000805480602002602001604051908101604052809291908181526020016000905b8282101561039757838290600052602060002001805461030a90610919565b80601f016020809104026020016040519081016040528092919081815260200182805461033690610919565b80156103835780601f1061035857610100808354040283529160200191610383565b820191906000526020600020905b81548152906001019060200180831161036657829003601f168201915b5050505050815260200190600101906102eb565b50505050905090565b8280546103ac90610919565b90600052602060002090601f0160209004810192826103ce576000855561041c565b82601f106103df578054855561041c565b8280016001018555821561041c57600052602060002091601f016020900482015b8281111561041b578254825591600101919060010190610400565b5b5090506104299190610514565b5090565b50805461043990610919565b6000825580601f1061044b575061046a565b601f0160209004906000526020600020908101906104699190610514565b5b50565b82805461047990610919565b90600052602060002090601f01602090048101928261049b57600085556104e2565b82601f106104b457805160ff19168380011785556104e2565b828001600101855582156104e2579182015b828111156104e15782518255916020019190600101906104c6565b5b5090506104ef9190610514565b5090565b50805460008255906000526020600020908101906105119190610531565b50565b5b8082111561052d576000816000905550600101610515565b5090565b5b808211156105515760008181610548919061042d565b50600101610532565b5090565b60006105686105638461079d565b610778565b90508281526020810184848401111561058057600080fd5b61058b8482856108d7565b509392505050565b600082601f8301126105a457600080fd5b81356105b4848260208601610555565b91505092915050565b6000602082840312156105cf57600080fd5b600082013567ffffffffffffffff8111156105e957600080fd5b6105f584828501610593565b91505092915050565b600061060a8383610706565b905092915050565b600061061d826107f3565b6106278185610816565b935083602082028501610639856107ce565b8060005b85811015610675578484038952815161065685826105fe565b945061066183610809565b925060208a0199505060018101905061063d565b50829750879550505050505092915050565b6000815461069481610919565b61069e8186610827565b945060018216600081146106b957600181146106ca576106fd565b60ff198316865281860193506106fd565b6106d3856107de565b60005b838110156106f5578154818901526001820191506020810190506106d6565b838801955050505b50505092915050565b6000610711826107fe565b61071b8185610832565b935061072b8185602086016108e6565b61073481610a52565b840191505092915050565b600061074b8284610687565b915081905092915050565b600060208201905081810360008301526107708184610612565b905092915050565b6000610782610793565b905061078e828261094b565b919050565b6000604051905090565b600067ffffffffffffffff8211156107b8576107b7610a23565b5b6107c182610a52565b9050602081019050919050565b6000819050602082019050919050565b60008190508160005260206000209050919050565b600081519050919050565b600081519050919050565b6000602082019050919050565b600082825260208201905092915050565b600081905092915050565b600082825260208201905092915050565b600061084e826108cd565b9150610859836108cd565b9250827fffffffffffffffffffffffffffffffffffffffffffffffffffffffffffffffff0382111561088e5761088d6109c5565b5b828201905092915050565b60006108a4826108cd565b91506108af836108cd565b9250828210156108c2576108c16109c5565b5b828203905092915050565b6000819050919050565b82818337600083830152505050565b60005b838110156109045780820151818401526020810190506108e9565b83811115610913576000848401525b50505050565b6000600282049050600182168061093157607f821691505b60208210811415610945576109446109f4565b5b50919050565b61095482610a52565b810181811067ffffffffffffffff8211171561097357610972610a23565b5b80604052505050565b6000610987826108cd565b91507fffffffffffffffffffffffffffffffffffffffffffffffffffffffffffffffff8214156109ba576109b96109c5565b5b600182019050919050565b7f4e487b7100000000000000000000000000000000000000000000000000000000600052601160045260246000fd5b7f4e487b7100000000000000000000000000000000000000000000000000000000600052602260045260246000fd5b7f4e487b7100000000000000000000000000000000000000000000000000000000600052604160045260246000fd5b6000601f19601f830116905091905056fea264697066735822122048b5cabc0129867774df89cd850d8b3ae49117d50fa51a14fb2b95d2287c261c64736f6c63430008040033","opcodes":"PUSH1 0x80 PUSH1 0x40 MSTORE CALLVALUE DUP1 ISZERO PUSH2 0x10 JUMPI PUSH1 0x0 DUP1 REVERT JUMPDEST POP PUSH2 0xA99 DUP1 PUSH2 0x20 PUSH1 0x0 CODECOPY PUSH1 0x0 RETURN INVALID PUSH1 0x80 PUSH1 0x40 MSTORE CALLVALUE DUP1 ISZERO PUSH2 0x10 JUMPI PUSH1 0x0 DUP1 REVERT JUMPDEST POP PUSH1 0x4 CALLDATASIZE LT PUSH2 0x4C JUMPI PUSH1 0x0 CALLDATALOAD PUSH1 0xE0 SHR DUP1 PUSH4 0x53A98EA9 EQ PUSH2 0x51 JUMPI DUP1 PUSH4 0xC47F0027 EQ PUSH2 0x6D JUMPI DUP1 PUSH4 0xD826F88F EQ PUSH2 0x89 JUMPI DUP1 PUSH4 0xFB825E5F EQ PUSH2 0x93 JUMPI JUMPDEST PUSH1 0x0 DUP1 REVERT JUMPDEST PUSH2 0x6B PUSH1 0x4 DUP1 CALLDATASIZE SUB DUP2 ADD SWAP1 PUSH2 0x66 SWAP2 SWAP1 PUSH2 0x5BD JUMP JUMPDEST PUSH2 0xB1 JUMP JUMPDEST STOP JUMPDEST PUSH2 0x87 PUSH1 0x4 DUP1 CALLDATASIZE SUB DUP2 ADD SWAP1 PUSH2 0x82 SWAP2 SWAP1 PUSH2 0x5BD JUMP JUMPDEST PUSH2 0x279 JUMP JUMPDEST STOP JUMPDEST PUSH2 0x91 PUSH2 0x2B8 JUMP JUMPDEST STOP JUMPDEST PUSH2 0x9B PUSH2 0x2C7 JUMP JUMPDEST PUSH1 0x40 MLOAD PUSH2 0xA8 SWAP2 SWAP1 PUSH2 0x756 JUMP JUMPDEST PUSH1 0x40 MLOAD DUP1 SWAP2 SUB SWAP1 RETURN JUMPDEST PUSH1 0x0 JUMPDEST PUSH1 0x0 DUP1 SLOAD SWAP1 POP DUP2 LT ISZERO PUSH2 0x275 JUMPI DUP2 DUP1 MLOAD SWAP1 PUSH1 0x20 ADD KECCAK256 PUSH1 0x0 DUP3 DUP2 SLOAD DUP2 LT PUSH2 0x103 JUMPI PUSH32 0x4E487B7100000000000000000000000000000000000000000000000000000000 PUSH1 0x0 MSTORE PUSH1 0x32 PUSH1 0x4 MSTORE PUSH1 0x24 PUSH1 0x0 REVERT JUMPDEST SWAP1 PUSH1 0x0 MSTORE PUSH1 0x20 PUSH1 0x0 KECCAK256 ADD PUSH1 0x40 MLOAD PUSH2 0x11A SWAP2 SWAP1 PUSH2 0x73F JUMP JUMPDEST PUSH1 0x40 MLOAD DUP1 SWAP2 SUB SWAP1 KECCAK256 EQ ISZERO PUSH2 0x262 JUMPI PUSH1 0x0 DUP2 SWAP1 POP JUMPDEST PUSH1 0x1 PUSH1 0x0 DUP1 SLOAD SWAP1 POP PUSH2 0x140 SWAP2 SWAP1 PUSH2 0x899 JUMP JUMPDEST DUP2 LT ISZERO PUSH2 0x206 JUMPI PUSH1 0x0 PUSH1 0x1 DUP3 PUSH2 0x156 SWAP2 SWAP1 PUSH2 0x843 JUMP JUMPDEST DUP2 SLOAD DUP2 LT PUSH2 0x18D JUMPI PUSH32 0x4E487B7100000000000000000000000000000000000000000000000000000000 PUSH1 0x0 MSTORE PUSH1 0x32 PUSH1 0x4 MSTORE PUSH1 0x24 PUSH1 0x0 REVERT JUMPDEST SWAP1 PUSH1 0x0 MSTORE PUSH1 0x20 PUSH1 0x0 KECCAK256 ADD PUSH1 0x0 DUP3 DUP2 SLOAD DUP2 LT PUSH2 0x1D1 JUMPI PUSH32 0x4E487B7100000000000000000000000000000000000000000000000000000000 PUSH1 0x0 MSTORE PUSH1 0x32 PUSH1 0x4 MSTORE PUSH1 0x24 PUSH1 0x0 REVERT JUMPDEST SWAP1 PUSH1 0x0 MSTORE PUSH1 0x20 PUSH1 0x0 KECCAK256 ADD SWAP1 DUP1 SLOAD PUSH2 0x1E7 SWAP1 PUSH2 0x919 JUMP JUMPDEST PUSH2 0x1F2 SWAP3 SWAP2 SWAP1 PUSH2 0x3A0 JUMP JUMPDEST POP DUP1 DUP1 PUSH2 0x1FE SWAP1 PUSH2 0x97C JUMP JUMPDEST SWAP2 POP POP PUSH2 0x12E JUMP JUMPDEST POP PUSH1 0x0 DUP1 SLOAD DUP1 PUSH2 0x23F JUMPI PUSH32 0x4E487B7100000000000000000000000000000000000000000000000000000000 PUSH1 0x0 MSTORE PUSH1 0x31 PUSH1 0x4 MSTORE PUSH1 0x24 PUSH1 0x0 REVERT JUMPDEST PUSH1 0x1 SWAP1 SUB DUP2 DUP2 SWAP1 PUSH1 0x0 MSTORE PUSH1 0x20 PUSH1 0x0 KECCAK256 ADD PUSH1 0x0 PUSH2 0x25B SWAP2 SWAP1 PUSH2 0x42D JUMP JUMPDEST SWAP1 SSTORE PUSH2 0x275 JUMP JUMPDEST DUP1 DUP1 PUSH2 0x26D SWAP1 PUSH2 0x97C JUMP JUMPDEST SWAP2 POP POP PUSH2 0xB4 JUMP JUMPDEST POP POP JUMP JUMPDEST PUSH1 0x0 DUP2 SWAP1 DUP1 PUSH1 0x1 DUP2 SLOAD ADD DUP1 DUP3 SSTORE DUP1 SWAP2 POP POP PUSH1 0x1 SWAP1 SUB SWAP1 PUSH1 0x0 MSTORE PUSH1 0x20 PUSH1 0x0 KECCAK256 ADD PUSH1 0x0 SWAP1 SWAP2 SWAP1 SWAP2 SWAP1 SWAP2 POP SWAP1 DUP1 MLOAD SWAP1 PUSH1 0x20 ADD SWAP1 PUSH2 0x2B4 SWAP3 SWAP2 SWAP1 PUSH2 0x46D JUMP JUMPDEST POP POP JUMP JUMPDEST PUSH1 0x0 DUP1 PUSH2 0x2C5 SWAP2 SWAP1 PUSH2 0x4F3 JUMP JUMPDEST JUMP JUMPDEST PUSH1 0x60 PUSH1 0x0 DUP1 SLOAD DUP1 PUSH1 0x20 MUL PUSH1 0x20 ADD PUSH1 0x40 MLOAD SWAP1 DUP2 ADD PUSH1 0x40 MSTORE DUP1 SWAP3 SWAP2 SWAP1 DUP2 DUP2 MSTORE PUSH1 0x20 ADD PUSH1 0x0 SWAP1 JUMPDEST DUP3 DUP3 LT ISZERO PUSH2 0x397 JUMPI DUP4 DUP3 SWAP1 PUSH1 0x0 MSTORE PUSH1 0x20 PUSH1 0x0 KECCAK256 ADD DUP1 SLOAD PUSH2 0x30A SWAP1 PUSH2 0x919 JUMP JUMPDEST DUP1 PUSH1 0x1F ADD PUSH1 0x20 DUP1 SWAP2 DIV MUL PUSH1 0x20 ADD PUSH1 0x40 MLOAD SWAP1 DUP2 ADD PUSH1 0x40 MSTORE DUP1 SWAP3 SWAP2 SWAP1 DUP2 DUP2 MSTORE PUSH1 0x20 ADD DUP3 DUP1 SLOAD PUSH2 0x336 SWAP1 PUSH2 0x919 JUMP JUMPDEST DUP1 ISZERO PUSH2 0x383 JUMPI DUP1 PUSH1 0x1F LT PUSH2 0x358 JUMPI PUSH2 0x100 DUP1 DUP4 SLOAD DIV MUL DUP4 MSTORE SWAP2 PUSH1 0x20 ADD SWAP2 PUSH2 0x383 JUMP JUMPDEST DUP3 ADD SWAP2 SWAP1 PUSH1 0x0 MSTORE PUSH1 0x20 PUSH1 0x0 KECCAK256 SWAP1 JUMPDEST DUP2 SLOAD DUP2 MSTORE SWAP1 PUSH1 0x1 ADD SWAP1 PUSH1 0x20 ADD DUP1 DUP4 GT PUSH2 0x366 JUMPI DUP3 SWAP1 SUB PUSH1 0x1F AND DUP3 ADD SWAP2 JUMPDEST POP POP POP POP POP DUP2 MSTORE PUSH1 0x20 ADD SWAP1 PUSH1 0x1 ADD SWAP1 PUSH2 0x2EB JUMP JUMPDEST POP POP POP POP SWAP1 POP SWAP1 JUMP JUMPDEST DUP3 DUP1 SLOAD PUSH2 0x3AC SWAP1 PUSH2 0x919 JUMP JUMPDEST SWAP1 PUSH1 0x0 MSTORE PUSH1 0x20 PUSH1 0x0 KECCAK256 SWAP1 PUSH1 0x1F ADD PUSH1 0x20 SWAP1 DIV DUP2 ADD SWAP3 DUP3 PUSH2 0x3CE JUMPI PUSH1 0x0 DUP6 SSTORE PUSH2 0x41C JUMP JUMPDEST DUP3 PUSH1 0x1F LT PUSH2 0x3DF JUMPI DUP1 SLOAD DUP6 SSTORE PUSH2 0x41C JUMP JUMPDEST DUP3 DUP1 ADD PUSH1 0x1 ADD DUP6 SSTORE DUP3 ISZERO PUSH2 0x41C JUMPI PUSH1 0x0 MSTORE PUSH1 0x20 PUSH1 0x0 KECCAK256 SWAP2 PUSH1 0x1F ADD PUSH1 0x20 SWAP1 DIV DUP3 ADD JUMPDEST DUP3 DUP2 GT ISZERO PUSH2 0x41B JUMPI DUP3 SLOAD DUP3 SSTORE SWAP2 PUSH1 0x1 ADD SWAP2 SWAP1 PUSH1 0x1 ADD SWAP1 PUSH2 0x400 JUMP JUMPDEST JUMPDEST POP SWAP1 POP PUSH2 0x429 SWAP2 SWAP1 PUSH2 0x514 JUMP JUMPDEST POP SWAP1 JUMP JUMPDEST POP DUP1 SLOAD PUSH2 0x439 SWAP1 PUSH2 0x919 JUMP JUMPDEST PUSH1 0x0 DUP3 SSTORE DUP1 PUSH1 0x1F LT PUSH2 0x44B JUMPI POP PUSH2 0x46A JUMP JUMPDEST PUSH1 0x1F ADD PUSH1 0x20 SWAP1 DIV SWAP1 PUSH1 0x0 MSTORE PUSH1 0x20 PUSH1 0x0 KECCAK256 SWAP1 DUP2 ADD SWAP1 PUSH2 0x469 SWAP2 SWAP1 PUSH2 0x514 JUMP JUMPDEST JUMPDEST POP JUMP JUMPDEST DUP3 DUP1 SLOAD PUSH2 0x479 SWAP1 PUSH2 0x919 JUMP JUMPDEST SWAP1 PUSH1 0x0 MSTORE PUSH1 0x20 PUSH1 0x0 KECCAK256 SWAP1 PUSH1 0x1F ADD PUSH1 0x20 SWAP1 DIV DUP2 ADD SWAP3 DUP3 PUSH2 0x49B JUMPI PUSH1 0x0 DUP6 SSTORE PUSH2 0x4E2 JUMP JUMPDEST DUP3 PUSH1 0x1F LT PUSH2 0x4B4 JUMPI DUP1 MLOAD PUSH1 0xFF NOT AND DUP4 DUP1 ADD OR DUP6 SSTORE PUSH2 0x4E2 JUMP JUMPDEST DUP3 DUP1 ADD PUSH1 0x1 ADD DUP6 SSTORE DUP3 ISZERO PUSH2 0x4E2 JUMPI SWAP2 DUP3 ADD JUMPDEST DUP3 DUP2 GT ISZERO PUSH2 0x4E1 JUMPI DUP3 MLOAD DUP3 SSTORE SWAP2 PUSH1 0x20 ADD SWAP2 SWAP1 PUSH1 0x1 ADD SWAP1 PUSH2 0x4C6 JUMP JUMPDEST JUMPDEST POP SWAP1 POP PUSH2 0x4EF SWAP2 SWAP1 PUSH2 0x514 JUMP JUMPDEST POP SWAP1 JUMP JUMPDEST POP DUP1 SLOAD PUSH1 0x0 DUP3 SSTORE SWAP1 PUSH1 0x0 MSTORE PUSH1 0x20 PUSH1 0x0 KECCAK256 SWAP1 DUP2 ADD SWAP1 PUSH2 0x511 SWAP2 SWAP1 PUSH2 0x531 JUMP JUMPDEST POP JUMP JUMPDEST JUMPDEST DUP1 DUP3 GT ISZERO PUSH2 0x52D JUMPI PUSH1 0x0 DUP2 PUSH1 0x0 SWAP1 SSTORE POP PUSH1 0x1 ADD PUSH2 0x515 JUMP JUMPDEST POP SWAP1 JUMP JUMPDEST JUMPDEST DUP1 DUP3 GT ISZERO PUSH2 0x551 JUMPI PUSH1 0x0 DUP2 DUP2 PUSH2 0x548 SWAP2 SWAP1 PUSH2 0x42D JUMP JUMPDEST POP PUSH1 0x1 ADD PUSH2 0x532 JUMP JUMPDEST POP SWAP1 JUMP JUMPDEST PUSH1 0x0 PUSH2 0x568 PUSH2 0x563 DUP5 PUSH2 0x79D JUMP JUMPDEST PUSH2 0x778 JUMP JUMPDEST SWAP1 POP DUP3 DUP2 MSTORE PUSH1 0x20 DUP2 ADD DUP5 DUP5 DUP5 ADD GT ISZERO PUSH2 0x580 JUMPI PUSH1 0x0 DUP1 REVERT JUMPDEST PUSH2 0x58B DUP5 DUP3 DUP6 PUSH2 0x8D7 JUMP JUMPDEST POP SWAP4 SWAP3 POP POP POP JUMP JUMPDEST PUSH1 0x0 DUP3 PUSH1 0x1F DUP4 ADD SLT PUSH2 0x5A4 JUMPI PUSH1 0x0 DUP1 REVERT JUMPDEST DUP2 CALLDATALOAD PUSH2 0x5B4 DUP5 DUP3 PUSH1 0x20 DUP7 ADD PUSH2 0x555 JUMP JUMPDEST SWAP2 POP POP SWAP3 SWAP2 POP POP JUMP JUMPDEST PUSH1 0x0 PUSH1 0x20 DUP3 DUP5 SUB SLT ISZERO PUSH2 0x5CF JUMPI PUSH1 0x0 DUP1 REVERT JUMPDEST PUSH1 0x0 DUP3 ADD CALLDATALOAD PUSH8 0xFFFFFFFFFFFFFFFF DUP2 GT ISZERO PUSH2 0x5E9 JUMPI PUSH1 0x0 DUP1 REVERT JUMPDEST PUSH2 0x5F5 DUP5 DUP3 DUP6 ADD PUSH2 0x593 JUMP JUMPDEST SWAP2 POP POP SWAP3 SWAP2 POP POP JUMP JUMPDEST PUSH1 0x0 PUSH2 0x60A DUP4 DUP4 PUSH2 0x706 JUMP JUMPDEST SWAP1 POP SWAP3 SWAP2 POP POP JUMP JUMPDEST PUSH1 0x0 PUSH2 0x61D DUP3 PUSH2 0x7F3 JUMP JUMPDEST PUSH2 0x627 DUP2 DUP6 PUSH2 0x816 JUMP JUMPDEST SWAP4 POP DUP4 PUSH1 0x20 DUP3 MUL DUP6 ADD PUSH2 0x639 DUP6 PUSH2 0x7CE JUMP JUMPDEST DUP1 PUSH1 0x0 JUMPDEST DUP6 DUP2 LT ISZERO PUSH2 0x675 JUMPI DUP5 DUP5 SUB DUP10 MSTORE DUP2 MLOAD PUSH2 0x656 DUP6 DUP3 PUSH2 0x5FE JUMP JUMPDEST SWAP5 POP PUSH2 0x661 DUP4 PUSH2 0x809 JUMP JUMPDEST SWAP3 POP PUSH1 0x20 DUP11 ADD SWAP10 POP POP PUSH1 0x1 DUP2 ADD SWAP1 POP PUSH2 0x63D JUMP JUMPDEST POP DUP3 SWAP8 POP DUP8 SWAP6 POP POP POP POP POP POP SWAP3 SWAP2 POP POP JUMP JUMPDEST PUSH1 0x0 DUP2 SLOAD PUSH2 0x694 DUP2 PUSH2 0x919 JUMP JUMPDEST PUSH2 0x69E DUP2 DUP7 PUSH2 0x827 JUMP JUMPDEST SWAP5 POP PUSH1 0x1 DUP3 AND PUSH1 0x0 DUP2 EQ PUSH2 0x6B9 JUMPI PUSH1 0x1 DUP2 EQ PUSH2 0x6CA JUMPI PUSH2 0x6FD JUMP JUMPDEST PUSH1 0xFF NOT DUP4 AND DUP7 MSTORE DUP2 DUP7 ADD SWAP4 POP PUSH2 0x6FD JUMP JUMPDEST PUSH2 0x6D3 DUP6 PUSH2 0x7DE JUMP JUMPDEST PUSH1 0x0 JUMPDEST DUP4 DUP2 LT ISZERO PUSH2 0x6F5 JUMPI DUP2 SLOAD DUP2 DUP10 ADD MSTORE PUSH1 0x1 DUP3 ADD SWAP2 POP PUSH1 0x20 DUP2 ADD SWAP1 POP PUSH2 0x6D6 JUMP JUMPDEST DUP4 DUP9 ADD SWAP6 POP POP POP JUMPDEST POP POP POP SWAP3 SWAP2 POP POP JUMP JUMPDEST PUSH1 0x0 PUSH2 0x711 DUP3 PUSH2 0x7FE JUMP JUMPDEST PUSH2 0x71B DUP2 DUP6 PUSH2 0x832 JUMP JUMPDEST SWAP4 POP PUSH2 0x72B DUP2 DUP6 PUSH1 0x20 DUP7 ADD PUSH2 0x8E6 JUMP JUMPDEST PUSH2 0x734 DUP2 PUSH2 0xA52 JUMP JUMPDEST DUP5 ADD SWAP2 POP POP SWAP3 SWAP2 POP POP JUMP JUMPDEST PUSH1 0x0 PUSH2 0x74B DUP3 DUP5 PUSH2 0x687 JUMP JUMPDEST SWAP2 POP DUP2 SWAP1 POP SWAP3 SWAP2 POP POP JUMP JUMPDEST PUSH1 0x0 PUSH1 0x20 DUP3 ADD SWAP1 POP DUP2 DUP2 SUB PUSH1 0x0 DUP4 ADD MSTORE PUSH2 0x770 DUP2 DUP5 PUSH2 0x612 JUMP JUMPDEST SWAP1 POP SWAP3 SWAP2 POP POP JUMP JUMPDEST PUSH1 0x0 PUSH2 0x782 PUSH2 0x793 JUMP JUMPDEST SWAP1 POP PUSH2 0x78E DUP3 DUP3 PUSH2 0x94B JUMP JUMPDEST SWAP2 SWAP1 POP JUMP JUMPDEST PUSH1 0x0 PUSH1 0x40 MLOAD SWAP1 POP SWAP1 JUMP JUMPDEST PUSH1 0x0 PUSH8 0xFFFFFFFFFFFFFFFF DUP3 GT ISZERO PUSH2 0x7B8 JUMPI PUSH2 0x7B7 PUSH2 0xA23 JUMP JUMPDEST JUMPDEST PUSH2 0x7C1 DUP3 PUSH2 0xA52 JUMP JUMPDEST SWAP1 POP PUSH1 0x20 DUP2 ADD SWAP1 POP SWAP2 SWAP1 POP JUMP JUMPDEST PUSH1 0x0 DUP2 SWAP1 POP PUSH1 0x20 DUP3 ADD SWAP1 POP SWAP2 SWAP1 POP JUMP JUMPDEST PUSH1 0x0 DUP2 SWAP1 POP DUP2 PUSH1 0x0 MSTORE PUSH1 0x20 PUSH1 0x0 KECCAK256 SWAP1 POP SWAP2 SWAP1 POP JUMP JUMPDEST PUSH1 0x0 DUP2 MLOAD SWAP1 POP SWAP2 SWAP1 POP JUMP JUMPDEST PUSH1 0x0 DUP2 MLOAD SWAP1 POP SWAP2 SWAP1 POP JUMP JUMPDEST PUSH1 0x0 PUSH1 0x20 DUP3 ADD SWAP1 POP SWAP2 SWAP1 POP JUMP JUMPDEST PUSH1 0x0 DUP3 DUP3 MSTORE PUSH1 0x20 DUP3 ADD SWAP1 POP SWAP3 SWAP2 POP POP JUMP JUMPDEST PUSH1 0x0 DUP2 SWAP1 POP SWAP3 SWAP2 POP POP JUMP JUMPDEST PUSH1 0x0 DUP3 DUP3 MSTORE PUSH1 0x20 DUP3 ADD SWAP1 POP SWAP3 SWAP2 POP POP JUMP JUMPDEST PUSH1 0x0 PUSH2 0x84E DUP3 PUSH2 0x8CD JUMP JUMPDEST SWAP2 POP PUSH2 0x859 DUP4 PUSH2 0x8CD JUMP JUMPDEST SWAP3 POP DUP3 PUSH32 0xFFFFFFFFFFFFFFFFFFFFFFFFFFFFFFFFFFFFFFFFFFFFFFFFFFFFFFFFFFFFFFFF SUB DUP3 GT ISZERO PUSH2 0x88E JUMPI PUSH2 0x88D PUSH2 0x9C5 JUMP JUMPDEST JUMPDEST DUP3 DUP3 ADD SWAP1 POP SWAP3 SWAP2 POP POP JUMP JUMPDEST PUSH1 0x0 PUSH2 0x8A4 DUP3 PUSH2 0x8CD JUMP JUMPDEST SWAP2 POP PUSH2 0x8AF DUP4 PUSH2 0x8CD JUMP JUMPDEST SWAP3 POP DUP3 DUP3 LT ISZERO PUSH2 0x8C2 JUMPI PUSH2 0x8C1 PUSH2 0x9C5 JUMP JUMPDEST JUMPDEST DUP3 DUP3 SUB SWAP1 POP SWAP3 SWAP2 POP POP JUMP JUMPDEST PUSH1 0x0 DUP2 SWAP1 POP SWAP2 SWAP1 POP JUMP JUMPDEST DUP3 DUP2 DUP4 CALLDATACOPY PUSH1 0x0 DUP4 DUP4 ADD MSTORE POP POP POP JUMP JUMPDEST PUSH1 0x0 JUMPDEST DUP4 DUP2 LT ISZERO PUSH2 0x904 JUMPI DUP1 DUP3 ADD MLOAD DUP2 DUP5 ADD MSTORE PUSH1 0x20 DUP2 ADD SWAP1 POP PUSH2 0x8E9 JUMP JUMPDEST DUP4 DUP2 GT ISZERO PUSH2 0x913 JUMPI PUSH1 0x0 DUP5 DUP5 ADD MSTORE JUMPDEST POP POP POP POP JUMP JUMPDEST PUSH1 0x0 PUSH1 0x2 DUP3 DIV SWAP1 POP PUSH1 0x1 DUP3 AND DUP1 PUSH2 0x931 JUMPI PUSH1 0x7F DUP3 AND SWAP2 POP JUMPDEST PUSH1 0x20 DUP3 LT DUP2 EQ ISZERO PUSH2 0x945 JUMPI PUSH2 0x944 PUSH2 0x9F4 JUMP JUMPDEST JUMPDEST POP SWAP2 SWAP1 POP JUMP JUMPDEST PUSH2 0x954 DUP3 PUSH2 0xA52 JUMP JUMPDEST DUP2 ADD DUP2 DUP2 LT PUSH8 0xFFFFFFFFFFFFFFFF DUP3 GT OR ISZERO PUSH2 0x973 JUMPI PUSH2 0x972 PUSH2 0xA23 JUMP JUMPDEST JUMPDEST DUP1 PUSH1 0x40 MSTORE POP POP POP JUMP JUMPDEST PUSH1 0x0 PUSH2 0x987 DUP3 PUSH2 0x8CD JUMP JUMPDEST SWAP2 POP PUSH32 0xFFFFFFFFFFFFFFFFFFFFFFFFFFFFFFFFFFFFFFFFFFFFFFFFFFFFFFFFFFFFFFFF DUP3 EQ ISZERO PUSH2 0x9BA JUMPI PUSH2 0x9B9 PUSH2 0x9C5 JUMP JUMPDEST JUMPDEST PUSH1 0x1 DUP3 ADD SWAP1 POP SWAP2 SWAP1 POP JUMP JUMPDEST PUSH32 0x4E487B7100000000000000000000000000000000000000000000000000000000 PUSH1 0x0 MSTORE PUSH1 0x11 PUSH1 0x4 MSTORE PUSH1 0x24 PUSH1 0x0 REVERT JUMPDEST PUSH32 0x4E487B7100000000000000000000000000000000000000000000000000000000 PUSH1 0x0 MSTORE PUSH1 0x22 PUSH1 0x4 MSTORE PUSH1 0x24 PUSH1 0x0 REVERT JUMPDEST PUSH32 0x4E487B7100000000000000000000000000000000000000000000000000000000 PUSH1 0x0 MSTORE PUSH1 0x41 PUSH1 0x4 MSTORE PUSH1 0x24 PUSH1 0x0 REVERT JUMPDEST PUSH1 0x0 PUSH1 0x1F NOT PUSH1 0x1F DUP4 ADD AND SWAP1 POP SWAP2 SWAP1 POP JUMP INVALID LOG2 PUSH5 0x6970667358 0x22 SLT KECCAK256 0x48 0xB5 0xCA 0xBC ADD 0x29 DUP7 PUSH24 0x74DF89CD850D8B3AE49117D50FA51A14FB2B95D2287C261C PUSH5 0x736F6C6343 STOP ADDMOD DIV STOP CALLER "},"methodIdentifiers":{"deleteName(string)":"53a98ea9","getAllNames()":"fb825e5f","reset()":"d826f88f","setName(string)":"c47f0027"}}}}}