{
  "_format": "hh-sol-artifact-1",
  "contractName": "SimpleContract",
  "sourceName": "contracts/SmartContract.sol",
  "abi": [
    {
      "inputs": [
        {
          "internalType": "string",
          "name": "_name",
          "type": "string"
        }
      ],
      "name": "deleteName",
      "outputs": [],
      "stateMutability": "nonpayable",
      "type": "function"
    },
    {
      "inputs": [],
      "name": "getAllNames",
      "outputs": [
        {
          "internalType": "string[]",
          "name": "",
          "type": "string[]"
        }
      ],
      "stateMutability": "view",
      "type": "function"
    },
    {
      "inputs": [],
      "name": "reset",
      "outputs": [],
      "stateMutability": "nonpayable",
      "type": "function"
    },
    {
      "inputs": [
        {
          "internalType": "string",
          "name": "_name",
          "type": "string"
        }
      ],
      "name": "setName",
      "outputs": [],
      "stateMutability": "nonpayable",
      "type": "function"
    }
  ],
  "bytecode": "0x608060405234801561001057600080fd5b50610a99806100206000396000f3fe608060405234801561001057600080fd5b506004361061004c5760003560e01c806353a98ea914610051578063c47f00271461006d578063d826f88f14610089578063fb825e5f14610093575b600080fd5b61006b600480360381019061006691906105bd565b6100b1565b005b610087600480360381019061008291906105bd565b610279565b005b6100916102b8565b005b61009b6102c7565b6040516100a89190610756565b60405180910390f35b60005b60008054905081101561027557818051906020012060008281548110610103577f4e487b7100000000000000000000000000000000000000000000000000000000600052603260045260246000fd5b9060005260206000200160405161011a919061073f565b604051809103902014156102625760008190505b60016000805490506101409190610899565b8110156102065760006001826101569190610843565b8154811061018d577f4e487b7100000000000000000000000000000000000000000000000000000000600052603260045260246000fd5b90600052602060002001600082815481106101d1577f4e487b7100000000000000000000000000000000000000000000000000000000600052603260045260246000fd5b906000526020600020019080546101e790610919565b6101f29291906103a0565b5080806101fe9061097c565b91505061012e565b50600080548061023f577f4e487b7100000000000000000000000000000000000000000000000000000000600052603160045260246000fd5b60019003818190600052602060002001600061025b919061042d565b9055610275565b808061026d9061097c565b9150506100b4565b5050565b6000819080600181540180825580915050600190039060005260206000200160009091909190915090805190602001906102b492919061046d565b5050565b6000806102c591906104f3565b565b60606000805480602002602001604051908101604052809291908181526020016000905b8282101561039757838290600052602060002001805461030a90610919565b80601f016020809104026020016040519081016040528092919081815260200182805461033690610919565b80156103835780601f1061035857610100808354040283529160200191610383565b820191906000526020600020905b81548152906001019060200180831161036657829003601f168201915b5050505050815260200190600101906102eb565b50505050905090565b8280546103ac90610919565b90600052602060002090601f0160209004810192826103ce576000855561041c565b82601f106103df578054855561041c565b8280016001018555821561041c57600052602060002091601f016020900482015b8281111561041b578254825591600101919060010190610400565b5b5090506104299190610514565b5090565b50805461043990610919565b6000825580601f1061044b575061046a565b601f0160209004906000526020600020908101906104699190610514565b5b50565b82805461047990610919565b90600052602060002090601f01602090048101928261049b57600085556104e2565b82601f106104b457805160ff19168380011785556104e2565b828001600101855582156104e2579182015b828111156104e15782518255916020019190600101906104c6565b5b5090506104ef9190610514565b5090565b50805460008255906000526020600020908101906105119190610531565b50565b5b8082111561052d576000816000905550600101610515565b5090565b5b808211156105515760008181610548919061042d565b50600101610532565b5090565b60006105686105638461079d565b610778565b90508281526020810184848401111561058057600080fd5b61058b8482856108d7565b509392505050565b600082601f8301126105a457600080fd5b81356105b4848260208601610555565b91505092915050565b6000602082840312156105cf57600080fd5b600082013567ffffffffffffffff8111156105e957600080fd5b6105f584828501610593565b91505092915050565b600061060a8383610706565b905092915050565b600061061d826107f3565b6106278185610816565b935083602082028501610639856107ce565b8060005b85811015610675578484038952815161065685826105fe565b945061066183610809565b925060208a0199505060018101905061063d565b50829750879550505050505092915050565b6000815461069481610919565b61069e8186610827565b945060018216600081146106b957600181146106ca576106fd565b60ff198316865281860193506106fd565b6106d3856107de565b60005b838110156106f5578154818901526001820191506020810190506106d6565b838801955050505b50505092915050565b6000610711826107fe565b61071b8185610832565b935061072b8185602086016108e6565b61073481610a52565b840191505092915050565b600061074b8284610687565b915081905092915050565b600060208201905081810360008301526107708184610612565b905092915050565b6000610782610793565b905061078e828261094b565b919050565b6000604051905090565b600067ffffffffffffffff8211156107b8576107b7610a23565b5b6107c182610a52565b9050602081019050919050565b6000819050602082019050919050565b60008190508160005260206000209050919050565b600081519050919050565b600081519050919050565b6000602082019050919050565b600082825260208201905092915050565b600081905092915050565b600082825260208201905092915050565b600061084e826108cd565b9150610859836108cd565b9250827fffffffffffffffffffffffffffffffffffffffffffffffffffffffffffffffff0382111561088e5761088d6109c5565b5b828201905092915050565b60006108a4826108cd565b91506108af836108cd565b9250828210156108c2576108c16109c5565b5b828203905092915050565b6000819050919050565b82818337600083830152505050565b60005b838110156109045780820151818401526020810190506108e9565b83811115610913576000848401525b50505050565b6000600282049050600182168061093157607f821691505b60208210811415610945576109446109f4565b5b50919050565b61095482610a52565b810181811067ffffffffffffffff8211171561097357610972610a23565b5b80604052505050565b6000610987826108cd565b91507fffffffffffffffffffffffffffffffffffffffffffffffffffffffffffffffff8214156109ba576109b96109c5565b5b600182019050919050565b7f4e487b7100000000000000000000000000000000000000000000000000000000600052601160045260246000fd5b7f4e487b7100000000000000000000000000000000000000000000000000000000600052602260045260246000fd5b7f4e487b7100000000000000000000000000000000000000000000000000000000600052604160045260246000fd5b6000601f19601f830116905091905056fea264697066735822122048b5cabc0129867774df89cd850d8b3ae49117d50fa51a14fb2b95d2287c261c64736f6c63430008040033",
  "linkReferences": {},
  "deployedLinkReferences": {}
}